:100000000C9434000C9446000C9446000C9446006A
:100010000C9446000C94E4020C9446000C944600A8
:100020000C9446000C9446000C9446000C94460038
:100030000C9446000C9446000C9446000C94460028
:100040000C9446000C9446000C9446000C94460018
:100050000C9446000C948A020C9446000C944600C2
:100060000C9446000C94460011241FBECFEFD8E03C
:10007000DEBFCDBF21E0A0E0B1E001C01D92A630FF
:10008000B207E1F70E940B030C940E070C940000DA
:10009000ECE7F0E0108280818064808380818F773C
:1000A0008083808180628083EAE7F0E01082808133
:1000B0008F6080838081806880830895F999FECF66
:1000C00092BD81BD8FB381608FBB80B50895F999D2
:1000D000FECF92BD81BD60BD8FB384608FBB8FB3F7
:1000E00082608FBB0895F8948AB18B778AB98BB1FF
:1000F00084688BB984B18A7E84B985B1856185B9FC
:10010000E8E6F0E0808184608083EDE6F0E08081C5
:100110008460808387B1836287B984B1826084B947
:100120000E9448000E9411030E94010460E074E0F4
:1001300080E00E946B0360E074E080E00E94810335
:1001400060E074E080E00E945D0460E074E080E0C4
:100150000E947B04789408951C9928C06091040142
:1001600080E090E00E9467006091030181E090E0F0
:100170000E9467006091020182E090E00E946700A7
:100180006091010183E090E00E94670085B1826088
:1001900085B92FEF89EF90E0215080409040E1F742
:1001A00000C0000085B18D7F85B97DC01A9928C037
:1001B0006091040184E090E00E9467006091030177
:1001C00085E090E00E9467006091020186E090E087
:1001D0000E9467006091010187E090E00E94670043
:1001E00085B1826085B92FEF89EF90E02150804082
:1001F0009040E1F700C0000085B18D7F85B953C004
:100200004F9928C06091040188E090E00E94670047
:100210006091030189E090E00E9467006091020113
:100220008AE090E00E946700609101018BE090E01D
:100230000E94670085B1826085B92FEF89EF90E059
:10024000215080409040E1F700C0000085B18D7FD3
:1002500085B929C0189927C0609104018CE090E00D
:100260000E946700609103018DE090E00E946700AA
:10027000609102018EE090E00E94670060910101B0
:100280008FE090E00E94670085B1826085B92FEF12
:1002900089EF90E0215080409040E1F700C00000DD
:1002A00085B18D7F85B92FEF80E792E021508040A6
:1002B0009040E1F700C0000008951C9930C080E034
:1002C00090E00E945E00809304010E94970381E009
:1002D00090E00E945E00809303010E94CC0382E0C4
:1002E00090E00E945E00809302010E94990483E0E6
:1002F00090E00E945E00809301010E94CF0485B1CE
:10030000826085B92FEF80E792E0215080409040D5
:10031000E1F700C0000085B18D7F85B995C01A99BD
:1003200030C084E090E00E945E00809304010E944F
:10033000970385E090E00E945E00809303010E9495
:10034000CC0386E090E00E945E00809302010E9450
:10035000990487E090E00E945E00809301010E9472
:10036000CF0485B1826085B92FEF80E792E02150FC
:1003700080409040E1F700C0000085B18D7F85B9D5
:1003800063C04F9930C088E090E00E945E00809387
:1003900004010E94970389E090E00E945E00809330
:1003A00003010E94CC038AE090E00E945E008093EB
:1003B00002010E9499048BE090E00E945E0080930D
:1003C00001010E94CF0485B1826085B92FEF80E7DB
:1003D00092E0215080409040E1F700C0000085B1DC
:1003E0008D7F85B931C018992FC08CE090E00E94B4
:1003F0005E00809304010E9497038DE090E00E94CC
:100400005E00809303010E94CC038EE090E00E9486
:100410005E00809302010E9499048FE090E00E94A8
:100420005E00809301010E94CF0485B1826085B98E
:100430002FEF80E792E0215080409040E1F700C02C
:10044000000085B18D7F85B92FEF80E792E02150C4
:1004500080409040E1F700C000000895ACE7B0E0B4
:100460008C91887F86608C93EAE7F0E080818064DD
:1004700080838FE39CE90197F1F700C000008C9125
:10048000887F84608C938081806480838FE39CE983
:100490000197F1F700C000008C91887F83608C93F6
:1004A0008081806480838FE39CE90197F1F700C02D
:1004B00000008C91887F82608C938081806480832F
:1004C0008FE39CE90197F1F700C00000089588B11F
:1004D0008E7F88B988B18D7F88B988B18F7D88B9C2
:1004E00080910501813061F018F0823079F0089533
:1004F00088B1816088B90E942E020E94AC000895E4
:1005000088B1826088B90E945D01089588B18062D7
:1005100088B908951F920F920FB60F9211242F934E
:100520003F934F935F936F937F938F939F93AF937B
:10053000BF93EF93FF938091050181112FC08091AC
:100540007C008770833039F48091790080930301B7
:100550000E94CC0323C080917C008770863039F4E0
:1005600080917900809301010E94CF0417C080918F
:100570007C008770823039F4809179008093040187
:100580000E9497030BC080917C008770843031F407
:1005900080917900809302010E949904EAE7F0E0DB
:1005A000808180648083FF91EF91BF91AF919F9193
:1005B0008F917F916F915F914F913F912F910F900C
:1005C0000FBE0F901F9018951F920F920FB60F92AB
:1005D00011248F939F9389B1982F947082FD0FC03F
:1005E00080910001882359F0809105018F5F8093ED
:1005F000050180910501833010F010920501909360
:1006000000018BB384608BBB9F918F910F900FBEC5
:100610000F901F901895F8940E9473000E94670233
:10062000FDCF14BC15BC08954F925F926F927F92DC
:10063000AF92BF92CF92DF92EF92FF920F931F93F0
:10064000CF93DF93CDB7DEB728970FB6F894DEBF10
:100650000FBECDBF29013A01E982FA820B831C83C8
:100660000E9405056D837E838F839887A60195017F
:10067000698D7A8D8B8D9C8D0E9405059B01AC0147
:100680006D817E818F8198850E94A1066B017C011E
:10069000A301920169817A818B819C810E94050569
:1006A0009B01AC01C701B6010E94720528960FB6E6
:1006B000F894DEBF0FBECDBFDF91CF911F910F9198
:1006C000FF90EF90DF90CF90BF90AF907F906F90B2
:1006D0005F904F9008959AB190649AB9882321F061
:1006E00084B5806C84BD03C084B5806884BD84B546
:1006F000836084BD6115744019F485B5856085BD3E
:1007000008959AB190629AB9882321F084B58063E4
:1007100084BD03C084B5806284BD84B5836084BD1C
:100720006115744019F485B5856085BD0895AF9253
:10073000BF92CF92DF92EF92FF920F931F93682F99
:1007400070E080E090E00E94130622E42F9320E105
:100750002F931F921F920F2EA12CB12CF0ECCF2EB5
:10076000F0E4DF2EF02DE12CF12C0FE713E420E074
:1007700030E0A9010E9414030F900F900F900F908A
:100780000E94E40567BD1F910F91FF90EF90DF90ED
:10079000CF90BF90AF900895AF92BF92CF92DF926B
:1007A000EF92FF920F931F93682F70E080E090E02C
:1007B0000E94130622E42F932CE22F931F921F9284
:1007C0000F2EA12CB12CF8E8CF2EF1E4DF2EF02D66
:1007D000E12CF12C0FE713E420E030E0A9010E94A6
:1007E00014030F900F900F900F900E94E40568BDC6
:1007F0001F910F91FF90EF90DF90CF90BF90AF903F
:1008000008951092B0001092B10008954F925F9237
:100810006F927F92AF92BF92CF92DF92EF92FF9250
:100820000F931F93CF93DF93CDB7DEB728970FB603
:10083000F894DEBF0FBECDBF29013A01E982FA82EA
:100840000B831C830E9405056D837E838F839887AD
:10085000A6019501698D7A8D8B8D9C8D0E94050571
:100860009B01AC016D817E818F8198850E94A106DC
:100870006B017C01A301920169817A818B819C814A
:100880000E9405059B01AC01C701B6010E947205DB
:1008900028960FB6F894DEBF0FBECDBFDF91CF9183
:1008A0001F910F91FF90EF90DF90CF90BF90AF908E
:1008B0007F906F905F904F90089594B1986094B935
:1008C000882331F0E0EBF0E08081806C808305C00C
:1008D000E0EBF0E0808180688083E0EBF0E08081F5
:1008E000836080836115744029F4E1EBF0E080813E
:1008F0008760808308959AB198609AB9882331F00F
:10090000E0EBF0E080818063808305C0E0EBF0E005
:10091000808180628083E0EBF0E08081836080836F
:100920006115744029F4E1EBF0E0808187608083F9
:100930000895AF92BF92CF92DF92EF92FF920F9302
:100940001F93682F70E080E090E00E94130622E47D
:100950002F9320E12F931F921F920F2EA12CB12CC9
:10096000F0ECCF2EF0E4DF2EF02DE12CF12C0FE790
:1009700013E420E030E0A9010E9406040F900F90DC
:100980000F900F900E94E4056093B3001F910F91A8
:10099000FF90EF90DF90CF90BF90AF900895AF920F
:1009A000BF92CF92DF92EF92FF920F931F93682F27
:1009B00070E080E090E00E94130622E42F9320E391
:1009C0002F931F921F920F2EA12CB12CF8ECCF2E3B
:1009D000F1E4DF2EF02DE12CF12C0FE713E420E001
:1009E00030E0A9010E9406040F900F900F900F9025
:1009F0000E94E4056093B4001F910F91FF90EF9067
:100A0000DF90CF90BF90AF9008955058BB27AA2792
:100A10000E941D050C9467060E94590638F00E943A
:100A2000600620F039F49F3F19F426F40C94560622
:100A30000EF4E095E7FB0C945006E92F0E9478062F
:100A400058F3BA17620773078407950720F079F403
:100A5000A6F50C949A060EF4E0950B2EBA2FA02D55
:100A60000B01B90190010C01CA01A0011124FF275B
:100A7000591B99F0593F50F4503E68F11A16F04056
:100A8000A22F232F342F4427585FF3CF4695379555
:100A90002795A795F0405395C9F77EF41F16BA0B1A
:100AA000620B730B840BBAF09150A1F0FF0FBB1FC8
:100AB000661F771F881FC2F70EC0BA0F621F731F11
:100AC000841F48F4879577956795B795F7959E3F6E
:100AD00008F0B0CF9395880F08F09927EE0F9795FF
:100AE000879508950E9486050C9467060E9460060B
:100AF00058F00E94590640F029F45F3F29F00C9409
:100B0000500651110C949B060C9456060E947806D0
:100B100068F39923B1F3552391F3951B550BBB272C
:100B2000AA2762177307840738F09F5F5F4F220F71
:100B3000331F441FAA1FA9F335D00E2E3AF0E0E868
:100B400032D091505040E695001CCAF72BD0FE2FB2
:100B500029D0660F771F881FBB1F26173707480746
:100B6000AB07B0E809F0BB0B802DBF01FF279358FE
:100B70005F4F3AF09E3F510578F00C9450060C946C
:100B80009B065F3FE4F3983ED4F38695779567958F
:100B9000B795F7959F5FC9F7880F911D9695879533
:100BA00097F90895E1E0660F771F881FBB1F621752
:100BB00073078407BA0720F0621B730B840BBA0B10
:100BC000EE1F88F7E09508950E94800688F09F57F1
:100BD00098F0B92F9927B751B0F0E1F0660F771F61
:100BE000881F991F1AF0BA95C9F714C0B13091F057
:100BF0000E949A06B1E008950C949A06672F782F08
:100C00008827B85F39F0B93FCCF38695779567951B
:100C1000B395D9F73EF490958095709561957F4F87
:100C20008F4F9F4F0895E89409C097FB3EF490952D
:100C30008095709561957F4F8F4F9F4F9923A9F0B5
:100C4000F92F96E9BB279395F69587957795679544
:100C5000B795F111F8CFFAF4BB0F11F460FF1BC088
:100C60006F5F7F4F8F4F9F4F16C0882311F096E91B
:100C700011C0772321F09EE8872F762F05C06623C9
:100C800071F096E8862F70E060E02AF09A95660F82
:100C9000771F881FDAF7880F9695879597F908953B
:100CA00097F99F6780E870E060E008959FEF80EC1F
:100CB000089500240A9416161706180609060895C2
:100CC00000240A9412161306140605060895092E28
:100CD0000394000C11F4882352F0BB0F40F4BF2B97
:100CE00011F460FF04C06F5F7F4F8F4F9F4F0895D7
:100CF00057FD9058440F551F59F05F3F71F04795CD
:100D0000880F97FB991F61F09F3F79F087950895B1
:100D1000121613061406551FF2CF4695F1DF08C0D0
:100D2000161617061806991FF1CF869571056105ED
:100D300008940895E894BB2766277727CB0197F995
:100D400008950E94B4060C9467060E94590638F074
:100D50000E94600620F0952311F00C9450060C942C
:100D6000560611240C949B060E94780670F3959FFA
:100D7000C1F3950F50E0551F629FF001729FBB2792
:100D8000F00DB11D639FAA27F00DB11DAA1F649F2E
:100D90006627B00DA11D661F829F2227B00DA11DE1
:100DA000621F739FB00DA11D621F839FA00D611D67
:100DB000221F749F3327A00D611D231F849F600D88
:100DC000211D822F762F6A2F11249F5750409AF0B1
:100DD000F1F088234AF0EE0FFF1FBB1F661F771F3D
:100DE000881F91505040A9F79E3F510580F00C9408
:100DF00050060C949B065F3FE4F3983ED4F386952F
:100E000077956795B795F795E7959F5FC1F7FE2BA7
:100E1000880F911D9695879597F90895F894FFCFBF
:00000001FF
