S015000050726F796563746F32206C69622E7372656331
S11300000C9434000C9446000C9446000C94460066
S11300100C9446000C94F4010C9446000C94460095
S11300200C9446000C9446000C9446000C94460034
S11300300C9446000C9446000C9446000C94460024
S11300400C9446000C9446000C9446000C94460014
S11300500C9446000C9495010C9446000C944600B4
S11300600C9446000C94460011241FBECFEFD8E038
S1130070DEBFCDBF21E0A0E0B1E001C01D92A630FB
S1130080B207E1F70E948F010C94BA030C940000AC
S1130090ECE7F0E0108280818064808380818F7738
S11300A08083808180628083EAE7F0E0108280812F
S11300B08F6080838081806880830895F999FECF62
S11300C092BD81BD81B592B5816092BD81BD80B57F
S11300D00895F999FECF92BD81BD60BD8FB3846050
S11300E08FBB8FB382608FBB0895F8948AB18B77EE
S11300F08AB98BB184688BB984B1867E84B985B1A1
S1130100896185B9E8E6F0E0808184608083EDE66A
S1130110F0E080818460808387B1836287B98AB18B
S113012080618AB90E9448000E9439020E94180224
S1130130789408951C9913C06091010180E090E0C7
S11301400E9469008BB180618BB987E893E10197C4
S1130150F1F700C000008BB18F7E8BB94BC01B99A7
S113016013C06091020181E090E00E9469008BB1AC
S113017080618BB987E893E10197F1F700C0000033
S11301808BB18F7E8BB936C0189913C0609104016E
S113019083E090E00E9469008BB180618BB987E8AD
S11301A093E10197F1F700C000008BB18F7E8BB90A
S11301B021C04F991FC06091030170E080E090E07E
S11301C00E9406032AE939E949ED5FE30E946302CC
S11301D00E94D50282E090E00E9469008BB18061A8
S11301E08BB987E893E10197F1F700C000008BB168
S11301F08F7E8BB983ED90E30197F1F700C0000087
S113020008951C9909C080E090E00E945E008093EC
S113021001010E942E0220C01B9909C081E090E0D8
S11302200E945E00809302010E94230215C0189967
S113023009C083E090E00E945E00809304010E9464
S11302404A020AC04F9908C082E090E00E945E0012
S1130250809303010E945D0283ED90E30197F1F71F
S113026000C000000895ACE7B0E08C91887F866000
S11302708C93EAE7F0E080818064808383EC99E0EA
S11302800197F1F700C000008C91887F84608C9303
S113029080818064808383EC99E00197F1F700C04A
S11302A000008C91887F83608C938081806480833C
S11302B083EC99E00197F1F700C000008C91887FEE
S11302C082608C9380818064808383EC99E00197C1
S11302D0F1F700C00000089588B18E7F88B988B115
S11302E08D7F88B988B18F7D88B98091050181306F
S11302F061F018F0823079F0089588B1816088B98E
S11303000E9433010E949A00089588B1826088B9DE
S11303100E940101089588B1806288B90895F89413
S11303200E9475000E946C01FDCF1F920F920FB6C0
S11303300F9211242F933F934F935F936F937F9367
S11303408F939F93AF93BF93EF93FF9380917C0020
S113035087708430A9F4609179006093030170E0A0
S113036080E090E00E94060324EA30E74DED5FE36D
S11303700E9463020E94D502862F0E945D021EC065
S113038080917C008770833039F480917900809368
S113039002010E94230212C080917C008770823087
S11303A039F480917900809301010E942E0206C0E5
S11303B080917900809304010E944A02EAE7F0E008
S11303C0808180618083FF91EF91BF91AF919F9174
S11303D08F917F916F915F914F913F912F910F90EA
S11303E00FBE0F901F9018951F920F920FB60F9289
S11303F011248F939F9389B1982F947082FD0FC01D
S113040080910001882359F0809105018F5F8093CA
S1130410050180910501833010F01092050190933D
S113042000019F918F910F900FBE0F901F90189510
S11304308AB180648AB98AB180628AB983EA84BD48
S113044083E085BD089524EB829FC00111246FEFE2
S113045070E00E949203665F67BD089524EB829F5B
S1130460C00111246FEF70E00E949203665F68BDC3
S1130470089584B1826084B984B1846084B981EAC6
S113048080938000E1E8F0E088E0808380818460EC
S113049080830895682F70E080E090E00E94060356
S11304A02AE939E949ED5FE30E9463020E94D5021B
S11304B07093890060938800089590E090938B0076
S11304C080938A0008950E9477020C9458030E9436
S11304D0510358F00E944A0340F029F45F3F29F089
S11304E00C94410351110C948C030C9447030E9407
S11304F0690368F39923B1F3552391F3951B550BC5
S1130500BB27AA2762177307840738F09F5F5F4FE2
S1130510220F331F441FAA1FA9F335D00E2E3AF021
S1130520E0E832D091505040E695001CCAF72BD039
S1130530FE2F29D0660F771F881FBB1F261737078A
S11305404807AB07B0E809F0BB0B802DBF01FF27BC
S113055093585F4F3AF09E3F510578F00C94410355
S11305600C948C035F3FE4F3983ED4F3869577951F
S11305706795B795F7959F5FC9F7880F911D969575
S1130580879597F90895E1E0660F771F881FBB1FD1
S1130590621773078407BA0720F0621B730B840B7E
S11305A0BA0BEE1F88F7E09508950E94710388F056
S11305B09F5798F0B92F9927B751B0F0E1F0660F23
S11305C0771F881F991F1AF0BA95C9F714C0B13064
S11305D091F00E948B03B1E008950C948B03672F74
S11305E0782F8827B85F39F0B93FCCF38695779593
S11305F06795B395D9F73EF490958095709561957C
S11306007F4F8F4F9F4F0895E89409C097FB3EF4A6
S113061090958095709561957F4F8F4F9F4F99234B
S1130620A9F0F92F96E9BB279395F69587957795C9
S11306306795B795F111F8CFFAF4BB0F11F460FF89
S11306401BC06F5F7F4F8F4F9F4F16C0882311F0E1
S113065096E911C0772321F09EE8872F762F05C0F5
S1130660662371F096E8862F70E060E02AF09A9590
S1130670660F771F881FDAF7880F9695879597F985
S1130680089597F99F6780E870E060E008959FEF10
S113069080EC089500240A94161617061806090615
S11306A0089500240A9412161306140605060895E4
S11306B0092E0394000C11F4882352F0BB0F40F46C
S11306C0BF2B11F460FF04C06F5F7F4F8F4F9F4FAC
S11306D0089557FD9058440F551F59F05F3F71F02E
S11306E04795880F97FB991F61F09F3F79F0879595
S11306F00895121613061406551FF2CF4695F1DF1E
S113070008C0161617061806991FF1CF86957105AD
S1130710610508940895E894BB2766277727CB01E1
S113072097F9089597FB072E16F4009407D077FDE8
S113073009D00E94A60307FC05D03EF4909581954C
S11307409F4F0895709561957F4F0895AA1BBB1B19
S113075051E107C0AA1FBB1FA617B70710F0A61BBD
S1130760B70B881F991F5A95A9F780959095BC01DE
S10B0770CD010895F894FFCFB8
S9030000FC
